{
  "contractName": "CrackToken",
  "abi": [
    {
      "inputs": [],
      "stateMutability": "nonpayable",
      "type": "constructor"
    },
    {
      "anonymous": false,
      "inputs": [
        {
          "indexed": true,
          "internalType": "address",
          "name": "_owner",
          "type": "address"
        },
        {
          "indexed": true,
          "internalType": "address",
          "name": "_spender",
          "type": "address"
        },
        {
          "indexed": false,
          "internalType": "uint256",
          "name": "_value",
          "type": "uint256"
        }
      ],
      "name": "Aprroval",
      "type": "event"
    },
    {
      "anonymous": false,
      "inputs": [
        {
          "indexed": true,
          "internalType": "address",
          "name": "_from",
          "type": "address"
        },
        {
          "indexed": true,
          "internalType": "address",
          "name": "_to",
          "type": "address"
        },
        {
          "indexed": false,
          "internalType": "uint256",
          "name": "_value",
          "type": "uint256"
        }
      ],
      "name": "transfer",
      "type": "event"
    },
    {
      "inputs": [
        {
          "internalType": "address",
          "name": "",
          "type": "address"
        },
        {
          "internalType": "address",
          "name": "",
          "type": "address"
        }
      ],
      "name": "allowance",
      "outputs": [
        {
          "internalType": "uint256",
          "name": "",
          "type": "uint256"
        }
      ],
      "stateMutability": "view",
      "type": "function",
      "constant": true
    },
    {
      "inputs": [
        {
          "internalType": "address",
          "name": "",
          "type": "address"
        }
      ],
      "name": "balanceOf",
      "outputs": [
        {
          "internalType": "uint256",
          "name": "",
          "type": "uint256"
        }
      ],
      "stateMutability": "view",
      "type": "function",
      "constant": true
    },
    {
      "inputs": [],
      "name": "decimal",
      "outputs": [
        {
          "internalType": "uint256",
          "name": "",
          "type": "uint256"
        }
      ],
      "stateMutability": "view",
      "type": "function",
      "constant": true
    },
    {
      "inputs": [],
      "name": "name",
      "outputs": [
        {
          "internalType": "string",
          "name": "",
          "type": "string"
        }
      ],
      "stateMutability": "view",
      "type": "function",
      "constant": true
    },
    {
      "inputs": [],
      "name": "symbol",
      "outputs": [
        {
          "internalType": "string",
          "name": "",
          "type": "string"
        }
      ],
      "stateMutability": "view",
      "type": "function",
      "constant": true
    },
    {
      "inputs": [],
      "name": "totalsupply",
      "outputs": [
        {
          "internalType": "uint256",
          "name": "",
          "type": "uint256"
        }
      ],
      "stateMutability": "view",
      "type": "function",
      "constant": true
    },
    {
      "inputs": [
        {
          "internalType": "address",
          "name": "_to",
          "type": "address"
        },
        {
          "internalType": "uint256",
          "name": "_value",
          "type": "uint256"
        }
      ],
      "name": "sendToken",
      "outputs": [
        {
          "internalType": "bool",
          "name": "success",
          "type": "bool"
        }
      ],
      "stateMutability": "nonpayable",
      "type": "function"
    },
    {
      "inputs": [
        {
          "internalType": "address",
          "name": "_spender",
          "type": "address"
        },
        {
          "internalType": "uint256",
          "name": "_value",
          "type": "uint256"
        }
      ],
      "name": "Aprobacion",
      "outputs": [
        {
          "internalType": "bool",
          "name": "success",
          "type": "bool"
        }
      ],
      "stateMutability": "nonpayable",
      "type": "function"
    },
    {
      "inputs": [
        {
          "internalType": "address",
          "name": "_from",
          "type": "address"
        },
        {
          "internalType": "address",
          "name": "_to",
          "type": "address"
        },
        {
          "internalType": "uint256",
          "name": "_value",
          "type": "uint256"
        }
      ],
      "name": "Transferencia_from",
      "outputs": [
        {
          "internalType": "bool",
          "name": "sucess",
          "type": "bool"
        }
      ],
      "stateMutability": "nonpayable",
      "type": "function"
    }
  ],
  "bytecode": "0x60806040526040518060400160405280600881526020017f526f62696e736f6e00000000000000000000000000000000000000000000000081525060009080519060200190620000519291906200010d565b506040518060400160405280600a81526020017f437261636b546f6b656e00000000000000000000000000000000000000000000815250600190805190602001906200009f9291906200010d565b5069d3c21bcecceda10000006002556012600355348015620000c057600080fd5b50600254600460003373ffffffffffffffffffffffffffffffffffffffff1673ffffffffffffffffffffffffffffffffffffffff1681526020019081526020016000208190555062000221565b8280546200011b90620001ec565b90600052602060002090601f0160209004810192826200013f57600085556200018b565b82601f106200015a57805160ff19168380011785556200018b565b828001600101855582156200018b579182015b828111156200018a5782518255916020019190600101906200016d565b5b5090506200019a91906200019e565b5090565b5b80821115620001b95760008160009055506001016200019f565b5090565b7f4e487b7100000000000000000000000000000000000000000000000000000000600052602260045260246000fd5b600060028204905060018216806200020557607f821691505b6020821081036200021b576200021a620001bd565b5b50919050565b610c4980620002316000396000f3fe608060405234801561001057600080fd5b50600436106100935760003560e01c806370a082311161006657806370a082311461014657806372dd529b1461017657806376809ce31461019457806395d89b41146101b2578063dd62ed3e146101d057610093565b806306fdde03146100985780632c2d7a7a146100b6578063412664ae146100e6578063430c620d14610116575b600080fd5b6100a0610200565b6040516100ad91906108df565b60405180910390f35b6100d060048036038101906100cb919061099a565b61028e565b6040516100dd9190610a08565b60405180910390f35b61010060048036038101906100fb9190610a23565b610514565b60405161010d9190610a08565b60405180910390f35b610130600480360381019061012b9190610a23565b61067d565b60405161013d9190610a08565b60405180910390f35b610160600480360381019061015b9190610a63565b61076f565b60405161016d9190610a9f565b60405180910390f35b61017e610787565b60405161018b9190610a9f565b60405180910390f35b61019c61078d565b6040516101a99190610a9f565b60405180910390f35b6101ba610793565b6040516101c791906108df565b60405180910390f35b6101ea60048036038101906101e59190610aba565b610821565b6040516101f79190610a9f565b60405180910390f35b6000805461020d90610b29565b80601f016020809104026020016040519081016040528092919081815260200182805461023990610b29565b80156102865780601f1061025b57610100808354040283529160200191610286565b820191906000526020600020905b81548152906001019060200180831161026957829003601f168201915b505050505081565b6000600460008573ffffffffffffffffffffffffffffffffffffffff1673ffffffffffffffffffffffffffffffffffffffff168152602001908152602001600020548211156102dc57600080fd5b600560008573ffffffffffffffffffffffffffffffffffffffff1673ffffffffffffffffffffffffffffffffffffffff16815260200190815260200160002060003373ffffffffffffffffffffffffffffffffffffffff1673ffffffffffffffffffffffffffffffffffffffff1681526020019081526020016000205482111561036557600080fd5b81600460008673ffffffffffffffffffffffffffffffffffffffff1673ffffffffffffffffffffffffffffffffffffffff16815260200190815260200160002060008282546103b49190610b89565b9250508190555081600460008573ffffffffffffffffffffffffffffffffffffffff1673ffffffffffffffffffffffffffffffffffffffff168152602001908152602001600020600082825461040a9190610bbd565b9250508190555081600560008673ffffffffffffffffffffffffffffffffffffffff1673ffffffffffffffffffffffffffffffffffffffff16815260200190815260200160002060003373ffffffffffffffffffffffffffffffffffffffff1673ffffffffffffffffffffffffffffffffffffffff168152602001908152602001600020600082825461049d9190610b89565b925050819055508273ffffffffffffffffffffffffffffffffffffffff168473ffffffffffffffffffffffffffffffffffffffff167fbeabacc8ffedac16e9a60acdb2ca743d80c2ebb44977a93fa8e483c74d2b35a8846040516105019190610a9f565b60405180910390a3600190509392505050565b600081600460003373ffffffffffffffffffffffffffffffffffffffff1673ffffffffffffffffffffffffffffffffffffffff16815260200190815260200160002054101561056257600080fd5b81600460003373ffffffffffffffffffffffffffffffffffffffff1673ffffffffffffffffffffffffffffffffffffffff16815260200190815260200160002060008282546105b19190610b89565b9250508190555081600460008573ffffffffffffffffffffffffffffffffffffffff1673ffffffffffffffffffffffffffffffffffffffff16815260200190815260200160002060008282546106079190610bbd565b925050819055508273ffffffffffffffffffffffffffffffffffffffff163373ffffffffffffffffffffffffffffffffffffffff167fbeabacc8ffedac16e9a60acdb2ca743d80c2ebb44977a93fa8e483c74d2b35a88460405161066b9190610a9f565b60405180910390a36001905092915050565b600081600560003373ffffffffffffffffffffffffffffffffffffffff1673ffffffffffffffffffffffffffffffffffffffff16815260200190815260200160002060008573ffffffffffffffffffffffffffffffffffffffff1673ffffffffffffffffffffffffffffffffffffffff168152602001908152602001600020819055508273ffffffffffffffffffffffffffffffffffffffff163373ffffffffffffffffffffffffffffffffffffffff167f07e88b091c933195b645a994e5aa108b7b85bf21cd03caea9af241455988cb208460405161075d9190610a9f565b60405180910390a36001905092915050565b60046020528060005260406000206000915090505481565b60025481565b60035481565b600180546107a090610b29565b80601f01602080910402602001604051908101604052809291908181526020018280546107cc90610b29565b80156108195780601f106107ee57610100808354040283529160200191610819565b820191906000526020600020905b8154815290600101906020018083116107fc57829003601f168201915b505050505081565b6005602052816000526040600020602052806000526040600020600091509150505481565b600081519050919050565b600082825260208201905092915050565b60005b83811015610880578082015181840152602081019050610865565b8381111561088f576000848401525b50505050565b6000601f19601f8301169050919050565b60006108b182610846565b6108bb8185610851565b93506108cb818560208601610862565b6108d481610895565b840191505092915050565b600060208201905081810360008301526108f981846108a6565b905092915050565b600080fd5b600073ffffffffffffffffffffffffffffffffffffffff82169050919050565b600061093182610906565b9050919050565b61094181610926565b811461094c57600080fd5b50565b60008135905061095e81610938565b92915050565b6000819050919050565b61097781610964565b811461098257600080fd5b50565b6000813590506109948161096e565b92915050565b6000806000606084860312156109b3576109b2610901565b5b60006109c18682870161094f565b93505060206109d28682870161094f565b92505060406109e386828701610985565b9150509250925092565b60008115159050919050565b610a02816109ed565b82525050565b6000602082019050610a1d60008301846109f9565b92915050565b60008060408385031215610a3a57610a39610901565b5b6000610a488582860161094f565b9250506020610a5985828601610985565b9150509250929050565b600060208284031215610a7957610a78610901565b5b6000610a878482850161094f565b91505092915050565b610a9981610964565b82525050565b6000602082019050610ab46000830184610a90565b92915050565b60008060408385031215610ad157610ad0610901565b5b6000610adf8582860161094f565b9250506020610af08582860161094f565b9150509250929050565b7f4e487b7100000000000000000000000000000000000000000000000000000000600052602260045260246000fd5b60006002820490506001821680610b4157607f821691505b602082108103610b5457610b53610afa565b5b50919050565b7f4e487b7100000000000000000000000000000000000000000000000000000000600052601160045260246000fd5b6000610b9482610964565b9150610b9f83610964565b925082821015610bb257610bb1610b5a565b5b828203905092915050565b6000610bc882610964565b9150610bd383610964565b9250827fffffffffffffffffffffffffffffffffffffffffffffffffffffffffffffffff03821115610c0857610c07610b5a565b5b82820190509291505056fea264697066735822122021c75dc799c92201e054c70aefefe0b67de9295019e97a6cad764705a606730e64736f6c634300080d0033",
  "immutableReferences": {},
  "source": "//SPDX-License-Identifier: MIT\r\n\r\n//Version del compilador \r\npragma solidity ^0.8.4;\r\n\r\n//Persona 1: Owner: 0x5B38Da6a701c568545dCfcB03FcB875f56beddC4\r\n//Persona 2: Usuario: 0xAb8483F64d9C6d1EcF9b849Ae677dD3315835cb2\r\n\r\n\r\n//Creacion del contrato \r\ncontract CrackToken {\r\n    //Declaraciones \r\n    string public name = \"Robinson\";\r\n    string public symbol = \"CrackToken\";\r\n    uint256 public totalsupply = 1000000000000000000000000; // 1 millon de tokens\r\n    uint256 public decimal = 18;    \r\n\r\n    //Evento para la transferencia de token de un usuario\r\n    event transfer (\r\n        address indexed _from,\r\n        address indexed _to,\r\n        uint256 _value\r\n    );\r\n\r\n    //Evento para la aprobacion de un operador \r\n    event Aprroval (\r\n        address indexed _owner,\r\n        address indexed _spender,\r\n        uint256 _value\r\n    );\r\n\r\n    //Estrcutura de datos \r\n    mapping(address => uint256) public balanceOf;\r\n    mapping (address => mapping (address => uint)) public allowance;\r\n\r\n\r\n    constructor (){\r\n        balanceOf[msg.sender] = totalsupply;\r\n    }\r\n\r\n    //Funciones de control y transferencia de tokens\r\n    function sendToken(address _to, uint256 _value) public returns(bool success){\r\n        require(balanceOf[msg.sender] >= _value);\r\n        balanceOf[msg.sender] -= _value;\r\n        balanceOf[_to] += _value;\r\n        emit transfer (msg.sender, _to, _value);\r\n        return true;\r\n    }\r\n\r\n    //Aprobacion para ser gastada por un operador \r\n    function Aprobacion (address _spender, uint256 _value) public returns(bool success) {\r\n        allowance[msg.sender][_spender] = _value;\r\n        emit Aprroval(msg.sender, _spender, _value);\r\n        return true;\r\n    }\r\n\r\n    //Funcion de transferenia de tokens desde el emisor \r\n    //Owner(20 Tokens) = Operador (5 Token) = 15 Tokens\r\n    function Transferencia_from (address _from, address _to, uint256 _value) public returns(bool sucess){\r\n        //Vemos la disponibilidad que tenemos de tokens\r\n        require(_value <= balanceOf[_from]);\r\n        //Vemos los tokens que tiene a disposicion el emisor \r\n        require(_value <= allowance[_from][msg.sender]);\r\n        //Decremetamos los token del emisor \r\n        balanceOf[_from] -= _value;\r\n        //Aumentamos los token de ls persona que recibe esos tokens\r\n        balanceOf[_to] += _value;\r\n        //Decremtamos los tokens del operados \r\n        allowance[_from][msg.sender] -= _value;\r\n        emit transfer(_from, _to, _value);\r\n        return true;\r\n\r\n    }\r\n\r\n}   ",
  "sourcePath": "C:\\Users\\LENOVO.USER\\Downloads\\Nuevo_defi\\contracts\\CrackToken.sol",
  "compiler": {
    "name": "solc",
    "version": "0.8.13+commit.abaa5c0e.Emscripten.clang"
  },
  "schemaVersion": "3.4.7",
  "updatedAt": "2023-07-26T18:38:18.801Z",
  "networkType": "ethereum",
  "devdoc": {
    "kind": "dev",
    "methods": {},
    "version": 1
  },
  "userdoc": {
    "kind": "user",
    "methods": {},
    "version": 1
  }
}