{
  "contractName": "TokenFarm",
  "abi": [
    {
      "inputs": [
        {
          "internalType": "contract StellarToken",
          "name": "_stellartoken",
          "type": "address"
        },
        {
          "internalType": "contract CrackToken",
          "name": "_cracktoken",
          "type": "address"
        }
      ],
      "stateMutability": "nonpayable",
      "type": "constructor"
    },
    {
      "inputs": [],
      "name": "cracktoken",
      "outputs": [
        {
          "internalType": "contract CrackToken",
          "name": "",
          "type": "address"
        }
      ],
      "stateMutability": "view",
      "type": "function",
      "constant": true
    },
    {
      "inputs": [
        {
          "internalType": "address",
          "name": "",
          "type": "address"
        }
      ],
      "name": "hasStaking",
      "outputs": [
        {
          "internalType": "bool",
          "name": "",
          "type": "bool"
        }
      ],
      "stateMutability": "view",
      "type": "function",
      "constant": true
    },
    {
      "inputs": [
        {
          "internalType": "address",
          "name": "",
          "type": "address"
        }
      ],
      "name": "isStaking",
      "outputs": [
        {
          "internalType": "bool",
          "name": "",
          "type": "bool"
        }
      ],
      "stateMutability": "view",
      "type": "function",
      "constant": true
    },
    {
      "inputs": [],
      "name": "name",
      "outputs": [
        {
          "internalType": "string",
          "name": "",
          "type": "string"
        }
      ],
      "stateMutability": "view",
      "type": "function",
      "constant": true
    },
    {
      "inputs": [],
      "name": "owner",
      "outputs": [
        {
          "internalType": "address",
          "name": "",
          "type": "address"
        }
      ],
      "stateMutability": "view",
      "type": "function",
      "constant": true
    },
    {
      "inputs": [
        {
          "internalType": "uint256",
          "name": "",
          "type": "uint256"
        }
      ],
      "name": "stakers",
      "outputs": [
        {
          "internalType": "address",
          "name": "",
          "type": "address"
        }
      ],
      "stateMutability": "view",
      "type": "function",
      "constant": true
    },
    {
      "inputs": [
        {
          "internalType": "address",
          "name": "",
          "type": "address"
        }
      ],
      "name": "stakingBalance",
      "outputs": [
        {
          "internalType": "uint256",
          "name": "",
          "type": "uint256"
        }
      ],
      "stateMutability": "view",
      "type": "function",
      "constant": true
    },
    {
      "inputs": [],
      "name": "stellartoken",
      "outputs": [
        {
          "internalType": "contract StellarToken",
          "name": "",
          "type": "address"
        }
      ],
      "stateMutability": "view",
      "type": "function",
      "constant": true
    },
    {
      "inputs": [
        {
          "internalType": "uint256",
          "name": "_amount",
          "type": "uint256"
        }
      ],
      "name": "Staker_Token",
      "outputs": [],
      "stateMutability": "nonpayable",
      "type": "function"
    },
    {
      "inputs": [],
      "name": "unstakeTokens",
      "outputs": [],
      "stateMutability": "nonpayable",
      "type": "function"
    },
    {
      "inputs": [],
      "name": "issueToken",
      "outputs": [],
      "stateMutability": "nonpayable",
      "type": "function"
    }
  ],
  "bytecode": "0x60806040526040518060400160405280600981526020017f546f6b656e4661726d0000000000000000000000000000000000000000000000815250600090805190602001906200005192919062000150565b503480156200005f57600080fd5b50604051620013fe380380620013fe8339818101604052810190620000859190620002c3565b81600360006101000a81548173ffffffffffffffffffffffffffffffffffffffff021916908373ffffffffffffffffffffffffffffffffffffffff16021790555080600260006101000a81548173ffffffffffffffffffffffffffffffffffffffff021916908373ffffffffffffffffffffffffffffffffffffffff16021790555033600160006101000a81548173ffffffffffffffffffffffffffffffffffffffff021916908373ffffffffffffffffffffffffffffffffffffffff16021790555050506200036e565b8280546200015e9062000339565b90600052602060002090601f016020900481019282620001825760008555620001ce565b82601f106200019d57805160ff1916838001178555620001ce565b82800160010185558215620001ce579182015b82811115620001cd578251825591602001919060010190620001b0565b5b509050620001dd9190620001e1565b5090565b5b80821115620001fc576000816000905550600101620001e2565b5090565b600080fd5b600073ffffffffffffffffffffffffffffffffffffffff82169050919050565b6000620002328262000205565b9050919050565b6000620002468262000225565b9050919050565b620002588162000239565b81146200026457600080fd5b50565b60008151905062000278816200024d565b92915050565b60006200028b8262000225565b9050919050565b6200029d816200027e565b8114620002a957600080fd5b50565b600081519050620002bd8162000292565b92915050565b60008060408385031215620002dd57620002dc62000200565b5b6000620002ed8582860162000267565b92505060206200030085828601620002ac565b9150509250929050565b7f4e487b7100000000000000000000000000000000000000000000000000000000600052602260045260246000fd5b600060028204905060018216806200035257607f821691505b6020821081036200036857620003676200030a565b5b50919050565b611080806200037e6000396000f3fe608060405234801561001057600080fd5b50600436106100a95760003560e01c80638da5cb5b116100715780638da5cb5b14610166578063a1ee8c7814610184578063a5ce413b1461018e578063c6dfe32714610198578063e1a21e37146101c8578063fd5e6dd1146101e6576100a9565b806306fdde03146100ae5780631eaea4c3146100cc57806345bc78ab146100ea57806356d932091461011a5780636f49712b14610136575b600080fd5b6100b6610216565b6040516100c39190610a9c565b60405180910390f35b6100d46102a4565b6040516100e19190610b3d565b60405180910390f35b61010460048036038101906100ff9190610b9b565b6102ca565b6040516101119190610be1565b60405180910390f35b610134600480360381019061012f9190610c28565b6102e2565b005b610150600480360381019061014b9190610b9b565b610586565b60405161015d9190610c70565b60405180910390f35b61016e6105a6565b60405161017b9190610c9a565b60405180910390f35b61018c6105cc565b005b6101966107b6565b005b6101b260048036038101906101ad9190610b9b565b61097e565b6040516101bf9190610c70565b60405180910390f35b6101d061099e565b6040516101dd9190610cd6565b60405180910390f35b61020060048036038101906101fb9190610c28565b6109c4565b60405161020d9190610c9a565b60405180910390f35b6000805461022390610d20565b80601f016020809104026020016040519081016040528092919081815260200182805461024f90610d20565b801561029c5780601f106102715761010080835404028352916020019161029c565b820191906000526020600020905b81548152906001019060200180831161027f57829003601f168201915b505050505081565b600360009054906101000a900473ffffffffffffffffffffffffffffffffffffffff1681565b60056020528060005260406000206000915090505481565b60008111610325576040517f08c379a000000000000000000000000000000000000000000000000000000000815260040161031c90610d9d565b60405180910390fd5b600260009054906101000a900473ffffffffffffffffffffffffffffffffffffffff1673ffffffffffffffffffffffffffffffffffffffff16632c2d7a7a3330846040518463ffffffff1660e01b815260040161038493929190610dbd565b6020604051808303816000875af11580156103a3573d6000803e3d6000fd5b505050506040513d601f19601f820116820180604052508101906103c79190610e20565b5080600560003373ffffffffffffffffffffffffffffffffffffffff1673ffffffffffffffffffffffffffffffffffffffff16815260200190815260200160002060008282546104179190610e7c565b92505081905550600660003373ffffffffffffffffffffffffffffffffffffffff1673ffffffffffffffffffffffffffffffffffffffff16815260200190815260200160002060009054906101000a900460ff166104d3576004339080600181540180825580915050600190039060005260206000200160009091909190916101000a81548173ffffffffffffffffffffffffffffffffffffffff021916908373ffffffffffffffffffffffffffffffffffffffff1602179055505b6001600660003373ffffffffffffffffffffffffffffffffffffffff1673ffffffffffffffffffffffffffffffffffffffff16815260200190815260200160002060006101000a81548160ff0219169083151502179055506001600760003373ffffffffffffffffffffffffffffffffffffffff1673ffffffffffffffffffffffffffffffffffffffff16815260200190815260200160002060006101000a81548160ff02191690831515021790555050565b60076020528060005260406000206000915054906101000a900460ff1681565b600160009054906101000a900473ffffffffffffffffffffffffffffffffffffffff1681565b600160009054906101000a900473ffffffffffffffffffffffffffffffffffffffff1673ffffffffffffffffffffffffffffffffffffffff163373ffffffffffffffffffffffffffffffffffffffff161461065c576040517f08c379a000000000000000000000000000000000000000000000000000000000815260040161065390610f1e565b60405180910390fd5b60005b6004805490508110156107b35760006004828154811061068257610681610f3e565b5b9060005260206000200160009054906101000a900473ffffffffffffffffffffffffffffffffffffffff1690506000600560008373ffffffffffffffffffffffffffffffffffffffff1673ffffffffffffffffffffffffffffffffffffffff168152602001908152602001600020549050600081111561079e57600360009054906101000a900473ffffffffffffffffffffffffffffffffffffffff1673ffffffffffffffffffffffffffffffffffffffff1663412664ae83836040518363ffffffff1660e01b8152600401610759929190610f6d565b6020604051808303816000875af1158015610778573d6000803e3d6000fd5b505050506040513d601f19601f8201168201806040525081019061079c9190610e20565b505b505080806107ab90610f96565b91505061065f565b50565b6000600560003373ffffffffffffffffffffffffffffffffffffffff1673ffffffffffffffffffffffffffffffffffffffff1681526020019081526020016000205490506000811161083d576040517f08c379a00000000000000000000000000000000000000000000000000000000081526004016108349061102a565b60405180910390fd5b600260009054906101000a900473ffffffffffffffffffffffffffffffffffffffff1673ffffffffffffffffffffffffffffffffffffffff1663412664ae33836040518363ffffffff1660e01b815260040161089a929190610f6d565b6020604051808303816000875af11580156108b9573d6000803e3d6000fd5b505050506040513d601f19601f820116820180604052508101906108dd9190610e20565b506000600560003373ffffffffffffffffffffffffffffffffffffffff1673ffffffffffffffffffffffffffffffffffffffff168152602001908152602001600020819055506000600760003373ffffffffffffffffffffffffffffffffffffffff1673ffffffffffffffffffffffffffffffffffffffff16815260200190815260200160002060006101000a81548160ff02191690831515021790555050565b60066020528060005260406000206000915054906101000a900460ff1681565b600260009054906101000a900473ffffffffffffffffffffffffffffffffffffffff1681565b600481815481106109d457600080fd5b906000526020600020016000915054906101000a900473ffffffffffffffffffffffffffffffffffffffff1681565b600081519050919050565b600082825260208201905092915050565b60005b83811015610a3d578082015181840152602081019050610a22565b83811115610a4c576000848401525b50505050565b6000601f19601f8301169050919050565b6000610a6e82610a03565b610a788185610a0e565b9350610a88818560208601610a1f565b610a9181610a52565b840191505092915050565b60006020820190508181036000830152610ab68184610a63565b905092915050565b600073ffffffffffffffffffffffffffffffffffffffff82169050919050565b6000819050919050565b6000610b03610afe610af984610abe565b610ade565b610abe565b9050919050565b6000610b1582610ae8565b9050919050565b6000610b2782610b0a565b9050919050565b610b3781610b1c565b82525050565b6000602082019050610b526000830184610b2e565b92915050565b600080fd5b6000610b6882610abe565b9050919050565b610b7881610b5d565b8114610b8357600080fd5b50565b600081359050610b9581610b6f565b92915050565b600060208284031215610bb157610bb0610b58565b5b6000610bbf84828501610b86565b91505092915050565b6000819050919050565b610bdb81610bc8565b82525050565b6000602082019050610bf66000830184610bd2565b92915050565b610c0581610bc8565b8114610c1057600080fd5b50565b600081359050610c2281610bfc565b92915050565b600060208284031215610c3e57610c3d610b58565b5b6000610c4c84828501610c13565b91505092915050565b60008115159050919050565b610c6a81610c55565b82525050565b6000602082019050610c856000830184610c61565b92915050565b610c9481610b5d565b82525050565b6000602082019050610caf6000830184610c8b565b92915050565b6000610cc082610b0a565b9050919050565b610cd081610cb5565b82525050565b6000602082019050610ceb6000830184610cc7565b92915050565b7f4e487b7100000000000000000000000000000000000000000000000000000000600052602260045260246000fd5b60006002820490506001821680610d3857607f821691505b602082108103610d4b57610d4a610cf1565b5b50919050565b7f4465626520736572206d61796f722061206365726f0000000000000000000000600082015250565b6000610d87601583610a0e565b9150610d9282610d51565b602082019050919050565b60006020820190508181036000830152610db681610d7a565b9050919050565b6000606082019050610dd26000830186610c8b565b610ddf6020830185610c8b565b610dec6040830184610bd2565b949350505050565b610dfd81610c55565b8114610e0857600080fd5b50565b600081519050610e1a81610df4565b92915050565b600060208284031215610e3657610e35610b58565b5b6000610e4484828501610e0b565b91505092915050565b7f4e487b7100000000000000000000000000000000000000000000000000000000600052601160045260246000fd5b6000610e8782610bc8565b9150610e9283610bc8565b9250827fffffffffffffffffffffffffffffffffffffffffffffffffffffffffffffffff03821115610ec757610ec6610e4d565b5b828201905092915050565b7f536520726571756965726520717565207365617320656c206f776e6572000000600082015250565b6000610f08601d83610a0e565b9150610f1382610ed2565b602082019050919050565b60006020820190508181036000830152610f3781610efb565b9050919050565b7f4e487b7100000000000000000000000000000000000000000000000000000000600052603260045260246000fd5b6000604082019050610f826000830185610c8b565b610f8f6020830184610bd2565b9392505050565b6000610fa182610bc8565b91507fffffffffffffffffffffffffffffffffffffffffffffffffffffffffffffffff8203610fd357610fd2610e4d565b5b600182019050919050565b7f44656265732074656e6572203120746f6b656e20706f72206c6f206d656e6f73600082015250565b6000611014602083610a0e565b915061101f82610fde565b602082019050919050565b6000602082019050818103600083015261104381611007565b905091905056fea26469706673582212206a88512d34ad9e37fd661835728a34777b775996db97fba09ce5700a9f6ecdab64736f6c634300080d0033",
  "immutableReferences": {},
  "source": "//SPDX-License-Identifier: MIT\r\n\r\n\r\n//Owner: 0x5B38Da6a701c568545dCfcB03FcB875f56beddC4\r\n//Usurario: 0xAb8483F64d9C6d1EcF9b849Ae677dD3315835cb2\r\n\r\n//Importamos los contartos\r\nimport \"./CrackToken.sol\";\r\nimport \"./StellarToken.sol\";\r\n\r\n\r\n//Version del compilador \r\npragma solidity >=0.4.22 <0.9.0;\r\n\r\n//Creacion del contrato\r\ncontract TokenFarm {\r\n\r\n    //Declaraciones\r\n    string public name =  \"TokenFarm\";\r\n    address public owner;\r\n    CrackToken public cracktoken;\r\n    StellarToken public stellartoken;\r\n\r\n    //Estrcutura de datos \r\n    address [] public stakers;\r\n    mapping (address => uint) public stakingBalance;\r\n    mapping (address => bool) public hasStaking;\r\n    mapping (address => bool) public isStaking;\r\n\r\n    //Creacion del constructor \r\n    constructor ( StellarToken _stellartoken, CrackToken _cracktoken){\r\n        stellartoken = _stellartoken;\r\n        cracktoken = _cracktoken;\r\n        owner = msg.sender;\r\n    }\r\n\r\n    function Staker_Token (uint _amount) public {\r\n        //Verificamos si es mayor a cero\r\n        require (_amount > 0, \"Debe ser mayor a cero\");\r\n        //Transferimos desde crack hacia el smart contract principal\r\n        cracktoken.Transferencia_from(msg.sender, address(this), _amount);\r\n        //Actualizacion del saldo del staking\r\n        stakingBalance[msg.sender] += _amount;\r\n        //Guardar el stakers \r\n        if (!hasStaking[msg.sender]){\r\n            stakers.push(msg.sender);\r\n        }\r\n\r\n        //Actualizar el estado del staking \r\n        hasStaking[msg.sender] = true;\r\n        isStaking[msg.sender] = true;\r\n    }\r\n        //Devolvemos el staking \r\n       function unstakeTokens () public {\r\n            //Almacenamos el staking de un usuario en una variable\r\n            uint balance = stakingBalance[msg.sender];\r\n            //Se requiere que el staking sea mayor a 0\r\n            require (balance > 0, \"Debes tener 1 token por lo menos\");\r\n            //Transferimos los tokens \r\n            cracktoken.sendToken(msg.sender, balance);\r\n            //Reseteo  del estado del staking \r\n            stakingBalance[msg.sender] = 0;\r\n            //Actualizamos el estado del staking \r\n            isStaking[msg.sender] = false;            \r\n        }\r\n\r\n        //Emision de los Tokens\r\n        function issueToken () public{\r\n            //Debemos verificar que sea el owner \r\n            require (msg.sender == owner, \"Se requiere que seas el owner\");\r\n            //Emitimos las recompensas a los stakers\r\n            for ( uint i= 0; i < stakers.length; i++){\r\n                address recipient = stakers[i];\r\n                uint balance = stakingBalance[recipient];\r\n                if (balance > 0){\r\n                    stellartoken.sendToken(recipient, balance);\r\n                }\r\n            }\r\n        }\r\n    \r\n}   \r\n",
  "sourcePath": "C:\\Users\\LENOVO.USER\\Downloads\\Nuevo_defi\\contracts\\TokenFarm.sol",
  "compiler": {
    "name": "solc",
    "version": "0.8.13+commit.abaa5c0e.Emscripten.clang"
  },
  "schemaVersion": "3.4.7",
  "updatedAt": "2023-07-26T18:38:18.912Z",
  "networkType": "ethereum",
  "devdoc": {
    "kind": "dev",
    "methods": {},
    "version": 1
  },
  "userdoc": {
    "kind": "user",
    "methods": {},
    "version": 1
  }
}